:1000000027C3000042C3000040C300000C94DF215E
:100010003CC300003AC3000038C3000036C30000F0
:1000200034C3000032C300000C9452270C941F28E4
:100030000C948C202AC3000028C3000026C30000B3
:1000400024C3000022C3000020C300001EC3000020
:100050001CC300000C94032118C3000016C3000049
:1000600014C3000012C3000010C300000EC3000040
:100070000CC300000AC3000008C3000006C3000050
:1000800004C3000002C3000000C30000FEC2000061
:10009000FCC20000FAC20000F8C20000F6C2000074
:1000A000F4C20000F2C20000F0C2000014441A00C2
:1000B00008001543170004001600074409000A0051
:1000C0001D221B2806001900050091242B221C006C
:1000D00018000C00120013000B000D000E430F005F
:1000E000280011001000360037212A002C429041D0
:1000F0001E001F002000210022002E212F003800AA
:100100002D0087002E222F0238022D0287020100C7
:1001100001002300240025002600270033003400BE
:100120003000320089003302340230023202890288
:10013000010001001E021F022002210222022E02E3
:100140002F0238022D028702E100E300E200910055
:10015000E100010001002302240225022602890891
:10016000330234023002320289022C009000010076
:1001700001004C000100010029002B00520000008A
:100180000000E000500051004F000000E100E300DB
:10019000E200910001000100010000000000520097
:1001A000000000000000500051004F00000000005F
:1001B0009000000000004C000100010000002B0036
:1001C000000000003A0000000000000000004000B5
:1001D000E1000000000000000100010001003B0000
:1001E0003C003D003E003F0041004200430044000F
:1001F00045000100010000002552265201000100C7
:10020000207821782378257827782B782C782D78FA
:100210002E782F7830783178327800000000010095
:1002200001000000000000000000000000000000CD
:10023000000000000000007C000000000000000042
:1002400001000100000000000000000000000000AC
:10025000000000000000000000000000000000009E
:10026000000000000000000000000000000000008E
:10027000000000000000000000000000000000007E
:10028000000000000000000000000000000000006E
:10029000000000000000000000000000000000005E
:1002A000000000000000000000000000000000004E
:1002B000000000000000000000000000000000003E
:1002C000000000000000000000000000000000002E
:1002D000000000000000000000000000000000001E
:1002E000000000000000000000000000000000000E
:1002F00000000000000000000000000000000000FE
:1003000000000000000000000000000000000000ED
:1003100000000000000000000000000000000000DD
:1003200000000000000000000000000000000000CD
:1003300000000000000000000000000000000000BD
:1003400000000000000000000000000000000000AD
:10035000000000000000000000000000000000009D
:10036000000000000000000000000000000000008D
:10037000000000000000000000000000000000007D
:10038000000000000000000000000000000000006D
:10039000000000000000000000000000000000005D
:1003A000000000000000000000000000000000004D
:1003B000000000000000000000000000000000003D
:1003C000000000000000000000000000000000002D
:1003D000000000000000000000000000000000001D
:1003E000000000002A2B2800000000000000000090
:1003F0000000000000000029000000002C1E342036
:10040000212224342627252E362D3738271E1F205B
:100410002122232425263333362E37381F040506A0
:100420000708090A0B0C0D0E0F10111213141516E4
:100430001718191A1B1C1D2F3130232D35040506E2
:100440000708090A0B0C0D0E0F10111213141516C4
:100450001718191A1B1C1D2F3130354C00000000D5
:10046000000000000000000000000000000000008C
:10047000000000000000000000000000000000007C
:100480007E0F00D4FFFFFFC7000000781403500068
:1004900061006C006D0062007200610069006E0016
:1004A00000001E03740061006B00610073006800AF
:1004B000690063006F006D00700061006E007900DC
:1004C00000000403090409025B00030100A0FA090B
:1004D000040000010301010009211101000122446F
:1004E0000007058103080001090401000203000060
:1004F00000092111010001222200070582032000CA
:1005000001070503032000010904020001030000A4
:100510000009211101000122B60007058403200013
:10052000011201000200000008637466000001016E
:100530000200010660FF0961A1010962150026FFA2
:10054000009520750881020963150026FF0095209B
:1005500075089102C005010902A10185020901A1E6
:100560000005091901290815002501950875018163
:10057000020501093009311581257F950275088131
:100580000609381581257F950175088106050C0A35
:1005900038021581257F950175088106C0C00501C7
:1005A0000980A101850319012AB700150126B700AA
:1005B000950175108100C0050C0901A10185041980
:1005C000012AA002150126A002950175108100C024
:1005D00005010906A1018506050719E029E71500AF
:1005E00025019508750181020507190029EF1500FD
:1005F000250195F075018102050819012905950568
:1006000075019102950175039101C005010906A1CB
:1006100001050719E029E7150025019508750181F5
:10062000029501750881010507190029FF150026AB
:10063000FF009506750881000508190129051500B8
:100640002501950575019102950175039101C00081
:1006500011241FBECFEFDAE0DEBFCDBF11E0A0E076
:10066000B1E0E2EDF5E502C005900D92AE3DB107B7
:10067000D9F723E0AEEDB1E001C01D92A331B2077E
:10068000E1F70E948F140C94952ABACC8C30B8F400
:100690006230A8F4413198F450E091E1699F400D37
:1006A000511D1124FA0192E2899FE00DF11D1124E0
:1006B000EE0FFF1FE455FF4F85919491089581E05F
:1006C00090E0089581E00895FDCF0895FBCF08954F
:1006D00081E00895F7CF0895F5CF0895FDCF0895EF
:1006E00008950895FDCF089508950895A6E0B0E017
:1006F000ECE7F3E00C94F92949835A839E83309107
:10070000E50189819A81311117C03E81332389F037
:10071000222379F02FD5182F682F89819A8109D546
:1007200069817A81812F0E94490F2696E3E00C941B
:10073000152A10D5182FF4CF1DD569817A81F3CFF2
:10074000FC01262F408151816281738184819581D2
:10075000CDCFCF93DF93EC0161E0F2DFBE01B4DFD8
:10076000882349F061E0CE01EBDFBE01AFDF81708D
:10077000DF91CF91089580E0FACF0F931F93CF932D
:10078000DF93EC0160E0DCDF8C01BE01AADFBE017B
:10079000C801A8DFDF91CF911F910F91089521E04B
:1007A00030E0A90102C0440F551F8A95E2F7CA0143
:1007B000F9C3CF93C82F81E090E00C2E02C0880FC0
:1007C000991F0A94E2F70E94230D8C2FE8DFCF9146
:1007D000089581E00895FDCF0895FBCF0895CF934C
:1007E000C82F98D38C2FF7DF8C2FF7DF2FEF84E300
:1007F0009CE0215080409040E1F700C00000CF9184
:10080000089581E0ECDF0C94272180E0E8DF0C9470
:1008100038210F931F93CF93DF938C0161E090DF1A
:10082000EC01B80157DF811106C080E0DF91CF9164
:100830001F910F910895B801CE0150DF8823A9F3CD
:10084000B801CE010E94F81C882379F3B801CE01CB
:100850000E94281C882349F3B801CE010E9470171A
:10086000882319F3B801CE010E9446178823E9F2C4
:10087000B801CE010E946B1C8823B9F2B801CE01E9
:100880000E948610882389F2F8018581882361F00F
:10089000C330FCE7DF07D9F050F4C115ECE7DE0701
:1008A000A1F0C130DC47A9F0C80112DFBFCFCB35C2
:1008B0008CE7D80799F0CC35ECE7DE0761F0CA3554
:1008C000DC4791F70E94E70CEFCF9BDFAECF0E9491
:1008D000180D9BDFAACF0E94DF0CE6CF0E94E90C27
:1008E000E3CF02DF0E944F2017C018D0FEDE0C9429
:1008F000532081E008950895CF93DF93D82FF9DF37
:10090000C82F882311F08D2FF6DF8C2FDF91CF9128
:1009100008950895F1CF089580E0FCCF0E942E1E27
:10092000F9CFCF930E942E1EC82F8091E0018C1723
:1009300071F0C093E0010E94F7206093E101709391
:10094000E2018093E3019093E4018C2FE3DFCF91E8
:100950000895ADE0B0E0EFEAF4E00C94FA2948879E
:1009600059876A877B878C879D87911153D71F8210
:1009700086E0FE013896DE01119601900D928A956F
:10098000E1F78D8181110CC029813A814B815C8115
:100990006D817E818F818ED62D96E2E00C94162A91
:1009A000CE010196D6DE8111EFCFF6CFFC01248176
:1009B000213019F4808191810EC40895662321F0BD
:1009C0000E94CD180C9498190E941F19FBCFCF9349
:1009D000C82F882389F08CEF8C0F813A78F48C2F04
:1009E0000E94F11E882321F08C2F0E94931F9DD717
:1009F0008C2F0E947C1F99D7CF91089580E28C0F95
:100A0000883040F4C77081E001C0880FCA95EAF7CA
:100A1000E4D6F1CFEBE5EC0FE33040F4F0E0E05743
:100A2000FE4F808190E00E94751EE6CFE8E5EC0F56
:100A3000EB3150F4F0E0EE0FFF1FE65AFE4F8081DD
:100A400091810E949C1ED8CF83E38C0F8331A0F646
:100A500061E08C2FB3DFD0CF882351F19CEF980F4A
:100A6000913A18F40E94931F60C790E2980F983053
:100A700048F4877091E001C0990F8A95EAF7892FB1
:100A8000B2D6F2CF9BE5980F933020F490E080E04F
:100A90000C94751E98E5980F9B3120F490E080E04F
:100AA0000C949C1E93E3980F933110F460E086CF72
:100AB00008951F93CF93DF93182FEB0188DF2097C2
:100AC00031F4812FC9DFDF91CF911F9108958FE914
:100AD0009FE00197F1F700C000002197F0CF70E090
:100AE00060E0893311F460E570E0E3CF882311F012
:100AF00074D61BC70895882311F075D616C70895BC
:100B0000B0E0A0E0E6E8F5E00C94F3296C01D62F04
:100B1000C72FFC011581068102950F7054D6E82E6F
:100B20008823E9F0E12E1123D1F08C2F807F8034CF
:100B300061F080E28D0F8830F8F08C2F807E80325B
:100B400021F4D230C8F00023B9F08091EB0282FF8B
:100B500013C082E00ED737D691E0E82EE926BC2EEE
:100B6000B2949FE0B922FBE0FB1580F1EB2DF0E0A1
:100B7000E956F54D0C94DD29E12CF1CF0C2F0F70C7
:100B8000C07F11F00295007F112381F0002349F00E
:100B900080E28D0F883010F0D11105C0802F1DD656
:100BA000C4D68D2F40C0802F28D6FACF8D2F54DF8A
:100BB000002361F080E28D0F883010F0D11103C066
:100BC000802F11D602C0802F1ED6AFD6EB2DE85055
:100BD000FF0B349708F04CC10E942E1E9BDECDB750
:100BE000DEB7E9E00C940F2A2C2F2F70F22EC07F75
:100BF000C03219F0F29480EFF822DD2341F0D130B9
:100C000081F1112309F439C00023C9F0CACF8091C2
:100C1000EB0282FD10C0112341F0FF2019F08F2D4F
:100C2000DCD583D680E0D3DED1CF80E015DFFF2096
:100C300069F28F2DC6CF112359F0011103C08F2DFA
:100C400055DFC4CF013009F0C1CF8F2DF7D5BECF0E
:100C50000111BCCF8F2D4FDF8F2DFBD58F2DE0D510
:100C6000B5CF112321F0063008F0B0CFE8CF053022
:100C700008F0ACCF8F2D3FDFA9CF0023D9F3D933B4
:100C800049F43FEF87EE93E0315080409040E1F728
:100C900000C000008D2FE0DE99CF8C2F86958695C1
:100CA000837069F0813009F091CF8D2F9C2F937064
:100CB000111102C080E090E00E949C1E87CF8D2F12
:100CC0009C2F9370111102C080E090E00E94751E6D
:100CD0007DCF612F8D2F72DE79CF8C2F837081F5C0
:100CE000111174CF4D2F429546954770440F440F14
:100CF0002D2F2F7030E0042E02C0220F331F0A94D4
:100D0000E2F790E080E0D4FF09C08FE090E002C0FD
:100D1000880F991F4A95E2F780959095C695C695DC
:100D2000C370822B932BC23039F040F4C13011F0E4
:100D300042D14CCF39D14ACF45D148CF33D146CF1C
:100D40008695112311F08C2F8170882309F43ECFF2
:100D50004D2F429546954770440F440F2D2F2F700D
:100D600030E0042E02C0220F331F0A94E2F790E015
:100D700080E0D4FF09C08FE090E002C0880F991F87
:100D80004A95E2F780959095C695C695C370822BDB
:100D9000932BC23039F040F4C13011F067D116CF37
:100DA0005ED114CF6AD112CF1AD110CFCF701123D8
:100DB00021F08C2F28D18D2F43CF8D2F9CDE8C2FAF
:100DC00030D104CFD23F39F160F4D03FB9F0D13FF8
:100DD00081F0112309F43CC00111E3CE8C2F8F71F7
:100DE0001EC0D33FF1F0D43FA1F78091EB0282FD0A
:100DF00020C08C2F8F71112319F311C0112339F0EA
:100E0000053008F0E3CE8C2F8F711BD1DFCE06307A
:100E100008F0DCCEF8CF8C2F8F711111D1CFF3D029
:100E2000D5CE112321F08C2F8F71E3D0CFCEDED021
:100E3000CDCE112329F063E08C2F8F7183D5C6CEE0
:100E400081E097D5023008F4C1CE82E092D5BECEC3
:100E5000002359F0D93309F01DCFEFEFF7EE23E06F
:100E6000E150F0402040E1F713CF8C2F8F71A8CFD5
:100E7000EE2009F4B4CEA3D480FDB1CEF6011582E4
:100E800098D4C1D0C60117D094D4CBD0A8CE0F939C
:100E90001F93CF93DF93EC01688179818D81A4D179
:100EA0008C01F2D07ED0B801CE012ADEDF91CF9145
:100EB0001F910F910895CF93DF93EC018C818823CC
:100EC00081F0CE01A6DC81110FC07DD4882349F0CA
:100ED0008D81882331F08091EB0282FF02C082E095
:100EE00048D5DF91CF910895CE01D1DFCE0145DC09
:100EF000F8CF90E080E00E94751E90E080E00E94B4
:100F00009C1E88D412D50E94B1190C9498190E9485
:100F1000AA1FEFCF6FD4FBCF92959F70963091F0C0
:100F200058F4925F9F70923058F4803F19F030F47B
:100F3000883E30F481E008959A5FF4CF843FD1F386
:100F400080E00895883EB0F3813FD1F7F3CFFC01F4
:100F50002481222321F0808191813DD1DDCF80E069
:100F60000895A6E0B0E0E7EBF7E00C94FA292696A6
:100F7000E2E00C94162AA7E0B0E0E1ECF7E00C9474
:100F8000FA292796E2E00C94162A0895FECF0895D8
:100F9000FDCF0895FADFFCDF9093FD018093FC0103
:100FA00008950895F7CF08952091FC013091FD0137
:100FB000822B932BEFCF2091FC013091FD018223F6
:100FC0009323E8CF2091FC013091FD0182279327E4
:100FD000E1CFDBCF0895FDCF0895D7CF0895FDDF92
:100FE000FADF9093FB018093FA01089590E080E08E
:100FF000F6CF21E030E0A90102C0440F551F8A95C9
:10100000E2F7CA01ECCF21E030E002C0220F331F2B
:101010008A95E2F78091FA019091FB01822B932B44
:10102000DECF21E030E002C0220F331F8A95E2F7C5
:10103000209530958091FA019091FB0182239323B2
:10104000CECF21E030E002C0220F331F8A95E2F7B5
:101050008091FA019091FB0182279327C0CF2091C4
:10106000FA013091FB01822B932BB9CF2091FA0129
:101070003091FB0182239323B2CF2091FA0130916A
:10108000FB0182279327ABCF0895262F277091E08D
:1010900001C0990F2A95EAF723E0769567952A957E
:1010A000E1F7660F771F660F771FFA01E60FF71F4C
:1010B00050E040E0682F70E08191DF0111979B01C3
:1010C000042E02C0369527950A94E2F721702195E7
:1010D0002827292328272C934F5F5F4F4430510541
:1010E00059F70895A82FA77023E0969587952A951C
:1010F000E1F7880F991F880F991FFB01E80FF91F6F
:1011000050E040E080E0219130E00A2E02C03695A8
:1011100027950A94E2F721703327042E01C0220F8D
:101120000A94EAF7822B4F5F5F4F4430510559F71D
:101130000895262F923068F4813158F4682F70E0BA
:1011400081E1989F600D711D112446EE51E0822FC0
:101150009CCF0895292F923058F4813148F490E0C3
:1011600066EE71E031E1239F800D911D1124BACF0D
:1011700080E00895B0E0A0E0E0ECF8E00C94F32902
:101180007C010091FA011091FB018091FC0190918A
:10119000FD01082B192BCBE0D0E0CC24C394D12C3B
:1011A000BC2EC6010C2E02C0880F991F0A94E2F7CC
:1011B00080239123892B49F4219790F7B12C8B2D13
:1011C000CDB7DEB7E9E00C940F2AB7018C2F6BD6B0
:1011D000019791F3F4CFCF93DF93EC01CBDFBE0106
:1011E00062D6DF91CF9108951F93CF93DF93EB01E8
:1011F0009091E501992331F0CB01EDDFDF91CF91A3
:101200001F910895882351F0CB01B4DF182F682F68
:10121000CE018FDFBE01812F46D6F0CFCB019ADF02
:10122000182FF8CFE1E0F0E0DF0102C0AA0FBB1FEA
:101230006A95E2F7BD01DF0102C0AA0FBB1F4A9504
:10124000E2F7AD01462B572B02C0EE0FFF1F2A9588
:10125000E2F79A01282339232417350719F48E2B36
:101260009F2B0895E095F0958E239F230895242FBA
:10127000462F682F8091FA019091FB01D3DFAFCE0A
:101280001F93CF93DF93C091FE0117E08091FF0180
:101290008C1304C0DF91CF911F910895D0E01C9F63
:1012A000F0011D9FF00D1124E050FE4F208131818F
:1012B000428153816481758186815DDE2196C7708C
:1012C000E5CF209138023091390240913A02509195
:1012D0003B0260913C0270913D0280913E024BCEF8
:1012E000CF93DF9380913E02807F09F04BC08091C5
:1012F0003D02882309F446C0E091FE015091FF01B0
:10130000C0913902D091380260913A0270913B024B
:1013100047E05E17B9F18E2F90E0E49FF0011124B1
:10132000E050FE4F2481222381F1489FF001499F24
:10133000F00D1124DF01A050BE4F11962C91119792
:101340002C1323C02C912D1320C015962C9115978A
:1013500021111BC012962D913C91261B370B283C66
:10136000310598F480913E028F70806180933E0237
:10137000EA5FFD4F80818F708061808388E392E017
:101380009ADD7EDFDF91CF910895FC013196E77001
:10139000C0CF482F2091FE019091FF0157E0291303
:1013A00002C080E0089530E0529FF001539FF00D9D
:1013B0001124E050FE4F8181681306C080814813DC
:1013C00003C085818111EECF2F5F3F4F2770E7CF9C
:1013D000A4E1B0E0EEEEF9E00C94F0298C0186E097
:1013E000F801DE011F9601900D928A95E1F7F80150
:1013F0008481E58098E3A92E92E0B92E90913C0279
:1014000091111AC08823A9F0EE2089F0C8019FDD50
:10141000F82E882361F087E0F801D50101900D9244
:101420008A95E1F7C501C2DA5BDF4BDF59C0C8011D
:1014300042DDFF24F39454C0C080D1808280938029
:10144000F0903D0220913A0230913B02A401421BF0
:10145000530BFF2009F4E9C0483C510508F09CC03B
:10146000882309F43DC09091390280913E02282FD3
:10147000207F09F056C09D1114C090913802C91206
:1014800010C0E11048C08F70806180933E0219DF68
:1014900088E392E010DD80913E02F8018683F12C12
:1014A0001FC0E11038C06D2D8C2D73DF6D2D8C2D7C
:1014B00070DFE82E8111F3CFCF86D88A8F85988987
:1014C0008ADE292F22952F70243078F49F702230E5
:1014D000A0F09923B1F0F8019681907F91F4FE2C51
:1014E0008F2D6496ECE00C940C2A2A5F2F7022302A
:1014F00060F0C801E0DCEF2CF2CF992311F08823D3
:1015000071F3805E883058F3F4CF803F40F3815F01
:10151000833078F7E4CF80913E02816080933E0271
:10152000BECF9D1112C090913802C9120EC0E110B9
:101530000CC08683C801BFDC87E0F801A8E3B2E0F5
:1015400001900D928A95E1F770CFC80100DD8823E4
:1015500009F46DCFEE2009F46ACF80913E0280320B
:1015600080F02091380230913902398728879B8694
:101570008A8690913C029C871D868E87CE010896B4
:101580009ADC87E0F801A8E3B2E001900D928A9519
:10159000E1F7A6DE96DE4DCF90913E02292F207F07
:1015A00089F4682D9A8A898AA6017A899E2DD9DCC8
:1015B00088E392E080DC87E0F50111928A95E9F7F3
:1015C00080DE6DCF882309F48BCF809139028D1195
:1015D0000FC080913802C8120BC0E11009C0968379
:1015E000C80169DC87E0F50111928A95E9F778CFA7
:1015F000C801ADDC882309F41ACFEE2009F417CF17
:1016000080913E02803208F4BCCF209138023091A4
:1016100039023A8329839C828B8290913C029D837C
:101620001E828F83CE010196ABCF483C5105A8F5B1
:10163000882309F4FECEFE2CEE2009F4F8CE80912A
:1016400039028D111EC080913802C8121AC08091D3
:101650003E0280FD0DC0982F907F51F08683903F11
:1016600009F468CF982F907F905F8F70892B61CF9E
:1016700087E0F801A8E3B2E001900D928A95E1F7C6
:101680002FCFC80164DC81117CCF80913E02816044
:1016900080933E02C8010FDC23CF682D9A8A898A85
:1016A000A6017A899E2D5DDC87E0F50111928A956D
:1016B000E9F7BBCEAEE0B0E0E0E6FBE00C94F92940
:1016C000288739874A875B876C877D878E87CE011D
:1016D00008967EDE8823A9F06C85662339F028857C
:1016E00039854A855B857D858E8545DC17E080914F
:1016F000FE019091FF0189133BC02E96E3E00C940C
:10170000152A87E0FE013896DE01119601900D92B0
:101710008A95E1F78C85882349F32091FF0130E019
:10172000C9010196877099274091FE014817190653
:1017300091F097E0929FD001939FB00D1124A0509B
:10174000BE4FFE01319601900D929A95E1F780937C
:10175000FF0196DDCBCFDEDB1092FF011092FE0180
:1017600087E0E8E3F2E0DF011D928A95E9F7BECF5A
:10177000819FC001112480509E4F2ADE882309F4E6
:10178000BCCFE091FE011E9FF0011124E050FE4FFE
:101790002081318142815381648175818681EBDBB7
:1017A0008091FE0190E00196877099278093FE0159
:1017B0009ECF809167028695869586950895809143
:1017C00067028770089590916702977081E009F42D
:1017D00080E0089580919302089590919302892B5F
:1017E000809393020895809590919302982390930B
:1017F0009302089510929302089590919202892B7A
:1018000080939202089580959091920298239093EC
:10181000920208951092920208950895FECF0895BD
:1018200090916802292F282329F08095892380939D
:101830006802F4CF08950895FECF0895909169024B
:10184000292F2823281721F0982B90936902F4CF91
:10185000089590916902292F282329F080958923E2
:1018600080936902E9CF089580916902882321F06D
:101870001092690280E0E0CF0895CF93C091930267
:1018800080919202C82B80916902882329F0C82B8D
:101890000E94D01E8111E8DF8C2FCF910895CF9345
:1018A000DF93C0910201D0910301E7DF8883C091EB
:1018B0000201D091030148E050E06FE572E0CE01F3
:1018C0000E94352A892B59F088E0FE01AFE5B2E08D
:1018D00001900D928A95E1F7CE010E94441EDF919E
:1018E000CF910895CF93DF93C0910001D091010172
:1018F000C4DF8983C0910001D091010140E250E032
:101900006FE372E0CE010E94352A892B59F080E204
:10191000FE01AFE3B2E001900D928A95E1F7CE01AE
:101920000E94511EDF91CF9108950E94271E8823A7
:1019300029F08091EA0287FF01C0D4CFB0CF08958B
:10194000FECF08959091EB0292FF0EC098E0899F20
:1019500090011124622B6093670255DB809167022E
:10196000869586958695ECCF4ECB1092670280E0E7
:10197000E7CF909167028095892380936702282F93
:10198000277059F4891749F09091EB0292FF05C036
:1019900086958695869545DBE8CF08959091EB0274
:1019A00092FB222720F9281749F080FB92F99093A7
:1019B000EB028AEE92E04BD082E0DBCF089580917B
:1019C000EB0282FB882780F991E08927E7CF81E04D
:1019D000E5CF80E0E3CF60E070E0CB01F6C360E0EC
:1019E00070E0CB01ECD3F7CFA3E0B0E0EAEFFCE08E
:1019F0000C94FA299DD3A8D31B82CE010396BBD3A6
:101A000081E090E09093FD018093FC01C0D31A82A5
:101A100019828A8184618A83CE010196C9D30E948A
:101A2000E41CDDDF2396E2E00C94162ADDCF089556
:101A300091C308957ED381110C94AA1C089590C37C
:101A400008959FC30895A3C30895A6C30895B0C37E
:101A50000895C1C30895C9C30895A6E0B0E0E3E3C3
:101A6000FDE00C94F8290E94EB208C0180919402F7
:101A7000909195028017910781F019821A820E9435
:101A8000EB20682F49815A81792F80E090E00E94F5
:101A9000A90410939502009394022696E4E00C9416
:101AA000142A19D36093A2027093A3028093A40214
:101AB0009093A50260939E0270939F028093A00270
:101AC0009093A102089508950895FDCF0895089573
:101AD000FEDFFBCF0895FECF08950895FEDFFBCF14
:101AE00081E0089584E890E12DD7EEDFF1CF3CC589
:101AF0000895089508950895FCDFFCDFFCCF9ADF78
:101B0000811101C093DF86EA92E099DF8AEE92E0CC
:101B10009CDF39D796DF46DA8091FA019091FB017C
:101B20005ACA0E94E220B2D20E94EF1C20D556D49D
:101B3000E6DF0E94890429D727D5D0CFA8E0B0E0FE
:101B4000E4EAFDE00C94EA29CBDF81110AC085DFCD
:101B50000BD50E94D3190E9491042896E2E10C94BF
:101B6000062A79D4C0909602D0909702E09098020D
:101B7000F090990280E044D3C616D706E806F9062D
:101B800079F4C0909A02D0909B02E0909C02F09071
:101B90009D0281E035D3C616D706E806F906B9F2EC
:101BA0008091A60281FD37D3A2DF282E86E992E03C
:101BB00098878F8310E033243394812F21D36B01D6
:101BC0007C01EF81F8854190519061907190F88788
:101BD000EF83C414D504E604F704F1F146265D242E
:101BE00068267F2400E0812C912C54018394D3013A
:101BF000C20188219921AA21BB21892B8A2B8B2BF9
:101C0000E9F02220D9F009831A830E94EB209C83FB
:101C10008B833D8221E0D701C60188219921AA2129
:101C2000BB21892B8A2B8B2B09F420E049815A8117
:101C30006B817C818D81922F0E94A9040F5F880C9B
:101C4000991CAA1CBB1C013191F6EF81F8853497D1
:101C5000C082D182E282F382113011F422DF78CF88
:101C600011E0ABCF1F93CF93DF931FD1EC01C115D0
:101C700080E5D807F0F5C11580E4D80708F09AC0D0
:101C8000C03ED10520F5CD3CD10508F082C0C83A50
:101C9000D10578F4C53AD10508F073C0C130D1053B
:101CA00019F1209709F1C430D105F0F4D0E0C0E07B
:101CB0001BC0C33CD105D0F7C85AD0E0CC0FDD1F04
:101CC000CD56DE4F0990D881C02DD4640DC0C1150A
:101CD00080E2D80708F0CDC0C11581E0D80708F030
:101CE0005AC0C83ED10510F7CE01DF91CF911F91A8
:101CF0000895C03682E5D80718F5C03482E5D807C4
:101D000008F068C0C03282E5D80708F05CC0C11591
:101D100082E5D80708F493C02C2F2695269580E2FB
:101D2000289F900111248C2F8370C1E0D0E002C065
:101D3000CC0FDD1F8A95E2F7C22BD32BDD68D4CF01
:101D4000C03A82E5D80760F4C03882E5D80708F4C5
:101D500056C0CF71D0E0DC2FCC27C46FD06AC4CF7F
:101D6000C03C82E5D80708F45FC0C03E82E5D807D2
:101D700008F09CCFDC2FCC27CC27DF71C06FD06A56
:101D8000B3CFC55AD0E0C753DE4FC881D0E0D0648E
:101D9000ABCFD065A9CF8D2F2AD1182FCE0199278F
:101DA00084D0C12FD0E0DC2FCC27CC27DF71C82B0B
:101DB000D92B9ACFCE01992778D0CC27DF70C82BAA
:101DC000D92BD06A91CFCF71D0E0DC2FCC27C16F57
:101DD000D06A8ACF2C2F26952695277080E2289FDF
:101DE000900111248C2F8370C1E0D0E002C0CC0F91
:101DF000DD1F8A95E2F7C22BD32BDC6875CF2C2F21
:101E000026952695277080E2289F900111248C2F1B
:101E10008370C1E0D0E002C0CC0FDD1F8A95E2F7ED
:101E2000C22BD32BDA6860CF8C2F8F71E0D0C82FF4
:101E3000D0E0DC2FCC27CC27DF71D06255CF8C2FA0
:101E40008F71D5D055E0D695C7955A95E1F7CF70EB
:101E5000D0E0DC2FCC27282F30E084FF06C044E000
:101E6000220F331F4A95E1F73327C22BD32BD069BA
:101E70003BCF8D2F8F71BBD0182FCE01992715D056
:101E8000C12FD0E0DC2FCC27CC27DF71C82BD92B7A
:101E9000D4CF462F723020F4613110F4672FF8C58B
:101EA00090E080E00895F5DFDDCE82389105B9F14C
:101EB000B0F48133910509F47DC048F4893291056D
:101EC00009F46DC08A32910509F47BC00895853309
:101ED000910509F45FC08933910509F10895833EA6
:101EE0009105D9F138F4803E910529F1823E9105A2
:101EF00079F10895863E9105D9F1873E910509F45F
:101F00003EC0843E910541F52091EB0221FF24C0A3
:101F10008091EA0284FD19C087EE90E00895209137
:101F2000EA02237009F05AC02091EB0223FF14C08B
:101F300089E290E008952091EA0220FD38C03091B6
:101F4000EB0230FF09C024FF43C090E080E0089519
:101F50002091EA0222FDF7CF08952091EA0222FDA6
:101F60003AC03091EB0230FD39C024FFF5CFEDCF00
:101F70002091EA0223FFF0CF24FDE7CFCDCF2091BF
:101F8000EA0223FD2EC03091EB0231FFEECF84EE4A
:101F900090E008952091EA0225FFDECFC9CF20917D
:101FA000EA0225FD21C02091EB0223FFD5CF89E372
:101FB00090E0D2CF2091EA0226FFCECF8AE290E0D5
:101FC00008952091EA0226FFC7CF81E390E00895AB
:101FD00083EE90E0089582EE90E0089580EE90E028
:101FE000089586EE90E0089585E390E0089590913D
:101FF000EA0292FF10C041E0282F2471243009F03A
:1020000040E031E0282F2871283009F030E04317F4
:1020100011F02CE0822793FF10C041E0282F24719B
:10202000243109F040E031E0282F2871283109F0EF
:1020300030E0431711F02CE082273091EB0230FFA3
:1020400010C051E0282F2171213009F050E041E00B
:10205000282F2871283009F040E0541711F029E0AA
:10206000822731FF10C041E0282F2171213109F072
:1020700040E031E0282F2871283109F030E0431783
:1020800011F029E0822794FD877E08951092EC02DA
:102090001092ED021092EE021092EF020895CF928C
:1020A000DF92EF92FF926B017C015ED281110EC034
:1020B0000E94F720C61AD70AE80AF90AC092EC0271
:1020C000D092ED02E092EE02F092EF02FF90EF90DC
:1020D000DF90CF9008950F931F9346D2882329F065
:1020E0000E94F7201F910F9108950E94F720009100
:1020F000EC021091ED022091EE023091EF02600FA0
:10210000711F821F931FEECF80E00895CF939C0133
:10211000205E3245C1E02032310538F4FB01C58133
:10212000C11103C08F710E94D9038C2FCF910895E4
:10213000089590E080E00E94532A21E0833E9E4F64
:1021400009F020E0822F089563EE7EEF90E080E0BA
:102150000C94812A6FEF7FEF90E080E00C94812A4D
:10216000CF93DF93EC0182E090E00E944B2A8883BA
:10217000DF91CF910895FC01608182E090E00C94A2
:10218000672A83E090E00E944B2A90E00895682F30
:1021900083E090E00C94672ACF93DF93EC0184E016
:1021A00090E00E94532A99838883DF91CF9108950C
:1021B000FC016081718184E090E00C94812AAB0184
:1021C000BC018FE090E00C94792AAB01BC0183E163
:1021D00090E00C94792A8EE090E00E944B2A91E0E6
:1021E000811101C090E0892F0895682F8EE090E062
:1021F0000C94672A0895FECF08950895FECF0895A0
:1022000094E0899FF0011124E750FD4F60817181B6
:1022100082819381089508950895FECF0895EF92E5
:10222000FF921F93CF93DF9300D000D0CDB7DEB7DE
:102230009BD1182F60910103882309F44CC01982A7
:102240001A821B821C8224E0629FC0011124FE01BD
:1022500031967F01BF0187509D4FA2D18823F9F0AD
:102260008091F002F4E08F9FC001112444E050E01F
:10227000B70187509D4F0E94352A21E02093A70285
:10228000892BC1F410E0BADF812F0F900F900F90CF
:102290000F90DF91CF911F91FF90EF900895809163
:1022A000A702882379F384E0F70111928A95E9F770
:1022B0001092A702E091F00224E0E29FF0011124C5
:1022C000E750FD4F89819A81AB81BC8180839183E6
:1022D000A283B383D8CF34E0639FB0011124675049
:1022E0007D4F8091F002E4E08E9FC0011124875061
:1022F0009D4FDBD192DFC8CFCF93A4E0B1E045E1A1
:1023000051E061E070E08D918F3F91F0E82FE29510
:10231000EF70F0E0C1A18F709B0101C0220F8A9580
:10232000EAF7922F90959C2391A382A1822B82A3FE
:102330004A175B0741F7CF9108958F929F92AF9212
:10234000BF92CF92DF92EF92FF920F931F93AC0157
:1023500081E1689FF0011124EC5FFE4F81E1812C47
:10236000912C54018394C12CD12C760191919F3FE3
:1023700089F1A92FA295AF70B0E090962C9130E032
:102380009F7002C0359527959A95E2F720FD22C0EF
:1023900095018401C02AD12AE22AF32A880C991CCB
:1023A000AA1CBB1C815011F7E4E06E9FB001112400
:1023B000640F751FFB01C082D182E282F3821F91FC
:1023C0000F91FF90EF90DF90CF90BF90AF909F90D4
:1023D0008F90089500E010E09801DCCFA1E1B0E01B
:1023E000E4EFF1E10C94FA2980911501811114C0F8
:1023F00081E1E9E4F1E0DE01119601900D928A9508
:10240000E1F7FE013196A4E0B1E0CE0142962191C0
:102410002D93E817F907D9F79091150181E09827D6
:1024200090930103891B8093F00266DF88E0E9EF57
:10243000F2E0DF01982F1D929A95E9F7E1EFF2E0C3
:10244000DF011D928A95E9F781E03ED0D4DE6196E6
:10245000E2E00C94162AA8E0B0E0E1E3F2E10C948B
:10246000F8298E010F5F1F4F88E0F80111928A95BD
:10247000E9F760E0C80161DF48E050E0B80181EFB2
:1024800092E00E94352A21E0009709F420E0892B90
:1024900041F088E0F801A1EFB2E001900D928A9539
:1024A000E1F760910103F4E06F9FB00111246750E0
:1024B0007D4F41E081EF92E008D0182FB0DE812BF4
:1024C0002896E4E00C94142A0895B0E0A0E0EBE62E
:1024D000F2E10C94F4296C017B01042FC22F22231A
:1024E00079F081E08093AA020E94EB209093A902E8
:1024F0008093A80280E0CDB7DEB7E8E00C94102A04
:10250000D091AA02DD23B1F38091A8029091A90293
:102510000E946C20059770F384E0089F80011124CD
:10252000A801B601C7010E94352A892B31F0A80104
:10253000B601C7010E94422ACD2F1092AA028C2F09
:10254000DACF78DA811101C071DA83CACF930E94A1
:10255000BD29C82F811102C00E94B9298C2FCF91AB
:1025600008958091AE0208958091AD020895EEDF46
:102570008093AD02E6DF8093AE02F3DF8093150116
:10258000F3DF811142C00895EFDF811101C040C027
:10259000089581E09091AF029A3008F080E00895AC
:1025A0000F931F93CF93DF93EC018B018091AF02C8
:1025B0008A30B0F4B801CE0176D0C82F811122C084
:1025C0008091AF028F3FB9F40E94EB209093AC0250
:1025D0008093AB028C2FDF91CF911F910F910895C3
:1025E0008091AB029091AC020E946C20843F91409C
:1025F00008F7C0E0EFCF8F5F8093AF028A3020F7FB
:10260000C1E0E8CF1092AF02E5CF0C949B21089572
:102610000C949E210895B0E0A0E0E1E1F3E10C9478
:10262000F5297901C82F880FDD0B41155105A9F057
:10263000FE0193E0EE0FFF1F9A95E1F7EA5EFE4F71
:102640008181928180559D4F208130E04217530750
:1026500008F49A01A9010E94422ACE010E947F2219
:10266000D82E8823D1F001151105B9F083E0CC0FE5
:10267000DD1F8A95E1F7FE01EA5EFE4F438150E0DF
:102680000417150708F4A801CA5EDE4F6C817D812E
:1026900060557D4FC7010E94422A8D2DCDB7DEB710
:1026A000E7E00C94112AF0C0089503C10895A4E056
:1026B000B0E0EDE5F3E10C94F8296091C50270916A
:1026C000C6028091C7029091C8020E94752011E055
:1026D000643671058105910508F1FDDC6E5F7F4F61
:1026E0008F4F9F4F69837A838B839C8310E000E038
:1026F00030E020E044E050E0BE016F5F7F4F82E0B9
:102700008ADF182F882351F00E94F7206093C502BA
:102710007093C6028093C7029093C802812F2496BB
:10272000E4E00C94142AB0E0A0E0E9E9F3E10C94B1
:10273000F2297C015B016A012CDF01E010E08823B3
:1027400011F00AE010E0C1E0D0E0B501C701F601E8
:102750000995811104C021960C171D072CF4CDB7E3
:10276000DEB7EAE00C940E2ACC9F9001CD9F300D8D
:10277000300D112490E080E045E34A95F1F7000028
:10278000019682179307C1F7E0CFA5E0B0E0EBEC2C
:10279000F3E10C94F2295B01E090CC01F090CD01C3
:1027A00001E010E09E012B5F3F4F50E040E070E001
:1027B00060E080E030DF182F882309F448C067010B
:1027C0008FEFC81AD80A6091C1027091C20280913D
:1027D000C3029091C4020E94752064367105810580
:1027E000910570F104E010E09E012F5F3F4F50E033
:1027F00040E070E060E081E00EDFF82E64E070E021
:10280000C601C4D011E09D81981310E01F2151F141
:102810000E94F7206093C1027093C2028093C302AA
:102820009093C40289819A81AB81BC818093BD025F
:102830009093BE02A093BF02B093C00211E012C0F9
:1028400064E070E0C601A2D09D818913CBCFF7016F
:1028500081819281A381B48189839A83AB83BC8374
:102860001111E0CF8091BD029091BE02A091BF02F4
:10287000B091C002F50180839183A283B383812F3D
:102880002596EAE00C940E2A0F931F93CF93DF93C3
:10289000EC018B0145EC53E146DF882329F047E545
:1028A00053E1B801CE013FDFDF91CF911F910F912E
:1028B00008950F931F93CF93DF93C091CC01D091D4
:1028C000CD01CE01019624E0FB01DC0101900D92C7
:1028D0002A95E1F764E070E059D088836D817E81AC
:1028E0008F8198850091B9021091BA022091BB02A4
:1028F0003091BC02601771078207930749F060931B
:10290000B9027093BA028093BB029093BC02C7DBFA
:10291000DF91CF911F910F91089510C908950E94E2
:1029200085200E945424DED80E946C24FAD80E948C
:1029300075240E947824F1DF0E948E240E943D239A
:10294000DBD8F7CF9093DF018093DE0108950C94DC
:10295000C31E08956DC8089580E052DC862F8170F3
:10296000089579DD2FEF86E791E021508040904077
:10297000E1F700C000006FDDEFDF882319F0EADF28
:102980000C9427210895EDCF08950895FC01680F58
:10299000791F8FEF91E36E177F0709F40895219156
:1029A000822728E030E087FF06C0880F8927215062
:1029B0003109C9F7F0CF880FFACFA1E0B0E0E3EE1C
:1029C000F4E10C94F6297C01FC0160817181828123
:1029D00093818E010F5F1F4F21E030E040E050E017
:1029E000A0D1F70180819181A281B3810196A11DBF
:1029F000B11D80839183A283B38389812196E6E010
:102A00000C94122A8CE00895D3C0089500C1089553
:102A1000CF93DF93CBD0C0E0D0E04D2F60E08C2F80
:102A20000E9446039C014D2F60E08C2FF0D0DF5FA9
:102A3000D13199F7D0E04D2F61E08C2F0E944603F1
:102A40009C014D2F61E08C2FE2D0DF5FD13199F7EF
:102A5000CF5FCC3009F7DF91CF9108950F931F938B
:102A60008A019B0150E040E0BC0190E080E0F5D09D
:102A70001F910F9108950F931F938A019B0150E0BE
:102A800040E0BC0190E080E016D11F910F910895C5
:102A90008C3028F4623018F4413108F489C090E099
:102AA00080E0089580E1089537D1CB0108950F9318
:102AB0001F938A019B0150E040E0BC0190E080E060
:102AC00030D11F910F9108950F931F938A019B019D
:102AD00050E040E0BC0190E080E059D11F910F919F
:102AE000089565D098C14F925F926F927F92BF9286
:102AF000CF92DF92EF92FF920F931F93CF93DF93CA
:102B000000D000D0CDB7DEB7B82E8FE08B1518F10E
:102B100003D161507109810991098E010F5F1F4F27
:102B200021E030E040E050E0FCD08981811113C009
:102B3000F3D02B013C01C12CD12C7601B1101DC06A
:102B4000C982DA82EB82FC8240E0BE016F5F7F4F78
:102B50008DED94E1ADD50F900F900F900F90DF9118
:102B6000CF911F910F91FF90EF90DF90CF90BF908A
:102B70007F906F905F904F900895C414D504E60441
:102B8000F70449F38E010F5F1F4F21E030E040E072
:102B900050E0C701B601C5D08981811101C0BA9446
:102BA0008FEFC81AD80AE80AF80AC8CF089508951E
:102BB0000F931F93CF93DF938C3030F5623020F565
:102BC000413110F5C42FD0E0CC0FDD1F22E2629F0F
:102BD000C00DD11D112434E4839FC00DD11D1124DB
:102BE000CE0189960E944B2A082F10E0102F002753
:102BF000CE018A960E944B2A9801282BC901DF91A9
:102C0000CF911F910F91089590E080E0F8CF1F932E
:102C1000CF93DF93122F8C30E0F46230D0F4413147
:102C2000C0F4C42FD0E0CC0FDD1F92E2699FC00D2D
:102C3000D11D112494E4899FC00DD11D1124632F4F
:102C4000CE0189960E94672A612FCE018A960E9442
:102C5000672ADF91CF911F910895B0E0A0E0E3E3F0
:102C6000F6E10C94F0296B017C01E8014B015C0159
:102C7000820E931EA41EB51EC6018996C814D904DF
:102C8000EA04FB0429F4CDB7DEB7ECE00C940C2A7F
:102C900020E3C21623E0D206E104F10450F40E94BE
:102CA0004B2A888321968FEFC81AD80AE80AF80AB7
:102CB000E3CF1882F7CFB0E0A0E0E1E6F6E10C94B4
:102CC000F0296B017C01EB014B015C01820E931E2C
:102CD000A41EB51E9601C6018996C814D904EA043B
:102CE000FB0429F4CDB7DEB7ECE00C940C2A40E3EA
:102CF000C41643E0D406E104F10440F42C1B3D0B60
:102D0000F801E20FF31F60810E94672A8FEFC81A53
:102D1000D80AE80AF80ADECF67EA70E080E090E0BF
:102D20000895B0E0A0E0E7E9F6E10C94EC296B012E
:102D30007C0129013A014B0187EA881A8CEF980A35
:102D4000D0E0C0E0C4018C0F9D1FAE0170E060E0D8
:102D5000441555056605770528F0CDB7DEB7E0E1E7
:102D60000C94082A4C0D5D1D6E1D7F1D5801AC0E84
:102D7000BD1E473A51056105710530F40E944B2A8A
:102D8000F50180832196DECFF5011082FBCF4F92B3
:102D90005F926F927F92AF92BF92CF92DF92EF924B
:102DA000FF920F931F93CF93DF936B017C01290157
:102DB0003A015B0187EAA81A8CEFB80AD0E0C0E0BC
:102DC000C5018C0F9D1FAE0170E060E044155505F4
:102DD0006605770578F0DF91CF911F910F91FF90F5
:102DE000EF90DF90CF90BF90AF907F906F905F900B
:102DF0004F9008954C0D5D1D6E1D7F1D473A510586
:102E00006105710530F4F801EC0FFD1F60810E942F
:102E1000672A2196D5CFA0E1B0E0E1E1F7E10C947B
:102E2000EC29CE0101965C0180E1F50111928A95B1
:102E3000E9F70BE010E097EA492E512C612C712C38
:102E400029E5822E23E0922E6201F1E14F16510412
:102E5000610471042CF080E1C82ED12CE12CF12CFE
:102E6000A601B401C5010E94582A8C0C9D1C0D2C92
:102E7000000CEE08FF084C185D086E087F08015032
:102E8000110911F76096E0E10C94082ACF93DF93C3
:102E9000EB0186319C4711F50E94EA0B9D81992335
:102EA00099F08A7A91E009F490E09093C902811137
:102EB00009C089E20E947C1F0E94950C80E0DF918E
:102EC000CF91089585E3F6CF8091C902811104C0A6
:102ED00089E20E94931FF0CF85E3FBCF81E0EFCF23
:102EE000CF93DF93EC01FB018581882309F4CEC0E9
:102EF0009E0130572332310508F0AEC08AEE92E0D1
:102F00000E94250DFE01E150F047E232F10520F468
:102F1000ED55F54D0C94DD298091EA028160809396
:102F2000EA0293C08091EB0288608093EB028DC02F
:102F30008091EA028260F3CF8091EA028460EFCF51
:102F40008091EA028860EBCF8091EB028160EDCF47
:102F50008091EB028260E9CF8091EA028061DFCF4D
:102F60008091EA028062DBCF8091EA028064D7CF51
:102F70000E948A078091EA028068D1CF8091EA029C
:102F80008C60CDCF8091EB028360CFCF8091EA023D
:102F90008E7FC5CF8091EB02877FC7CF8091EA02F9
:102FA0008D7FBDCF8091EA028B7FB9CF8091EA02FD
:102FB000877FB5CF8091EB028E7FB7CF8091EB02F8
:102FC0008D7FB3CF8091EA028F7EA9CF8091EA02F4
:102FD0008F7DA5CF8091EA028F7BA1CF0E948A07C7
:102FE0008091EA028F779BCF8091EA02837F97CF0F
:102FF0008091EB028C7F99CF8091EA0282FB992726
:1030000090F921E0922790FB82F990FB83F987CF1A
:103010008091EB02982F909591708E7F892B90FB79
:1030200081F983CF9091EA02892F8F7B96FF80648C
:1030300076CF0E948A079091EA02892F97FB87F941
:1030400080586DCF81E00E942B0D8AEE92E00E94A5
:10305000270D0E948A0780E0DF91CF91089580E0DC
:10306000F2CF9091EA02892F8F7E94FF806157CF33
:103070009091EA02892F8E7F90FF816050CF9091CE
:10308000EB02892F877F93FF88604FCF81E0E4CFE9
:10309000282F35EB2303C001112497FF04C080586B
:1030A0009109892F089580589F4FFBCF8091D002BE
:1030B00080FF0DC06091330170E0660F771F6038AC
:1030C000710570F56115710569F1862F089581FF0D
:1030D00007C06091330184E0689FB0011124EFCFF5
:1030E0006091330182FD0AC08091CF028823A9F04C
:1030F0002091320160913301821710F088E0ECCF0B
:10310000869FC001112433E0880F991F3A95E1F79B
:10311000622F70E00E94CA29D2CF68E070E0D5CF5C
:103120008FE7089581E008958091D00280FF0CC060
:1031300060912F0170E0759567957595679561159C
:10314000710549F1862F089581FF06C060912F0116
:1031500070E075956795F3CF60912F0182FD0BC0EC
:103160009091CE029923A1F060912E0180912F01C0
:10317000961738F0682F70E06038710500F38FE71C
:103180000895899FC001112470E00E94CA29F4CFDC
:1031900061E070E0D7CF81E008958D3C29F486DFAF
:1031A00081958093D40208958E3C11F47FDFF9CF8E
:1031B0008F3C29F47BDF81958093D3020895803D75
:1031C00011F474DFF9CF893D21F4AEDF8093D5028D
:1031D00008958A3D19F4A8DF8195F8CF8B3D29F435
:1031E000A3DF81958093D60208958C3D11F49CDF76
:1031F000F9CF9FE2980F983070F4815D990B21E030
:1032000030E001C0220F8A95EAF78091D202822B2A
:103210008093D20208958D3D31F48091D002816077
:103220008093D00208958E3D21F48091D002826077
:10323000F7CF8F3DB9F78091D0028460F1CF4091F4
:10324000D3028D3C59F48091D40287FF0DC01092B7
:10325000D40241110BC01092CF0208C08E3C81F401
:103260008091D40218169CF3442381F08091D502FA
:103270009091D602892B09F05AC01092CE0208957F
:103280008F3C49F447FFF0CF1092D3028091D402D3
:103290008111ECCFE0CF803D19F41416ACF3E4CFEC
:1032A0009091D502893D29F41916F4F61092D502B1
:1032B000DBCF8A3D19F497FFD7CFF8CF9091D60294
:1032C0008B3D29F497FFD0CF1092D602CDCF8C3D05
:1032D00019F41916CCF3C8CF9FE2980F983090F4E8
:1032E000815D990B21E030E0B90102C0660F771FC4
:1032F0008A95E2F7CB0180959091D2028923809341
:10330000D202B2CF8D3D31F48091D0028E7F809376
:10331000D002AACF8E3D21F48091D0028D7FF7CFCD
:103320008F3D09F0A1CF8091D0028B7FF0CF08951F
:1033300052D79C019091D3028091D402982B21F016
:103340003093CD022093CC029091D5028091D60289
:10335000982B21F03093CB022093CA0281ED92E0AA
:10336000B2C486E0E1EDF2E0DF011D928A95E9F753
:103370001092CF021092CE021092D0020895FC015A
:10338000828181110EC0838181110BC084818111E2
:1033900008C091E08581811101C090E0892F817082
:1033A000089581E0FCCFA6E0B0E0E9EDF9E10C94EE
:1033B000F92986E0E1EDF2E0DE01119601900D922F
:1033C0008A95E1F71092D3021092D4021092D5029E
:1033D0001092D6028B819C81892B81F08091CC0246
:1033E0009091CD0279D6AC019091CF029923A9F1A9
:1033F000809134018417150608F43CC08D819E81AC
:10340000892B89F08091CA029091CB0265D6AC01DC
:103410009091CE02992309F463C080913001841702
:10342000150608F46BC0BE016F5F7F4F81ED92E01F
:10343000AAD5811104C081ED92E0A1DF811178DF6E
:1034400086E0FE013196A1EDB2E001900D928A95E1
:10345000E1F72696E3E00C94152A209135018AE0E5
:10346000289F900111242417350740F69F5F909301
:10347000CF0202C09F3FD1F71B81112351F016DE0E
:103480009FEF11160CF491E0899F802D11248093F9
:10349000D3021C81112351F009DE9FEF11160CF4A9
:1034A00091E0899F802D11248093D4028091D302D2
:1034B000882309F4A3CF1091D402112309F49ECFDD
:1034C000E7DD882349F08093D302812FE1DD882353
:1034D00029F08093D40292CF81E0F5CF81E0F9CF3B
:1034E000209131018AE0289F90011124241735078B
:1034F00008F099CF9F5F9093CE0202C09F3FD1F713
:103500001D81112351F010DE9FEF11160CF491E094
:10351000899F802D11248093D5021E81112351F0A3
:1035200003DE9FEF11160CF491E0899F802D11248A
:103530008093D6028091D502882309F474CF10912C
:10354000D602112309F46FCFA3DD882349F08093BD
:10355000D502812F9DDD882329F08093D60263CF89
:1035600081E0F5CF81E0F9CFB0E0A0E0EAEBFAE14D
:103570000C94F329E82FF0E0E452FC4FB490282F8C
:1035800026952695269530E0F901E458FB4F0491E5
:10359000877010E0082E02C0159507950A94E2F78F
:1035A00001701127F901E459FB4FE490F12C082E2A
:1035B00002C0F594E7940A94E2F791E0E922FF242F
:1035C000F901E45AFB4FC491D0E002C0D595C795EC
:1035D0008A95E2F7C170DD27C62ED12C01151105A1
:1035E00049F5E114F10431F086EE0E94E704C601CA
:1035F000009771F5B6018B2D0E945905C601009701
:1036000079F5E114F104A1F50115110531F081EE10
:103610000E942C05C6010097C9F5CD2B31F08CE234
:103620000E946F05C114D104C9F5CDB7DEB7E9E03A
:103630000C940F2A81EE0E94E704C601009789F2DC
:10364000EFE9FFE03197F1F700C000000197F6CFF6
:10365000EFE9FFE03197F1F700C000000197C8CF14
:10366000EFE9FFE03197F1F700C000000197C7CF05
:1036700086EE0E942C05C601009731F2EFE9FFE0CB
:103680003197F1F700C000000197F6CFEFE9FFE0B6
:103690003197F1F700C000000197BDCF8FE99FE09F
:1036A0000197F1F700C0000091E0C91AD108BACF24
:1036B000B0E0A0E0EEE5FBE10C94F3298C017B0186
:1036C000D42F8AE0B82EC701F80109958823A9F004
:1036D000813009F058C0C701F8010995C82F813021
:1036E00089F4C701F80109950E946F058D2F90E0BC
:1036F000009709F040C0C111E6CFCDB7DEB7E9E0D1
:103700000C940F2A823031F4C701F80109950E9408
:10371000E704ECCF833031F4C701F80109950E942A
:103720002C05E4CF843011F7C701F8010995C82FA3
:10373000D12CC12C2C2F2053330BC9012A30310539
:1037400068F0C114D10491F28FE99FE00197F1F77D
:1037500000C0000091E0C91AD108F3CFBC9C9001D1
:10376000BD9C300D11246C01C20ED31EC701F8019F
:103770000995C82FDFCFEFE9FFE03197F1F700C0DF
:1037800000000197B5CF6D2FEFDE9DCF0F931F93F4
:10379000CF93DF93C42FD22FFC0185818823C1F002
:1037A0004093D90218D59093D8028093D70280E233
:1037B0008C0F883040F4C77081E001C0880FCA9533
:1037C000EAF70E947605DF91CF911F910F9108953E
:1037D0001091D902141331C08091D7029091D80270
:1037E0007BD4883C910548F5C0E2CD0F1D17B9F098
:1037F00080E2810F883040F4177081E001C0880FAB
:103800001A95EAF70E947B05C83048F481E09D2FA5
:10381000977001C0880F9A95EAF70E947605802F6D
:103820000E946F05C83078F6D77081E001C0880F1C
:10383000DA95EAF70E947B05C6CF80E28C0F8830CC
:1038400010F6C77081E001C0880FCA95EAF7F2CF81
:103850000F93DB0188519C478730910598F5FC0157
:10386000EB53F54D0C94DD2906E221EE41EE6AE1C1
:103870007CE7CD018BDF80E00F91089507E225EE14
:1038800045EE6BE17CE7F5CF06E221EE40EE68E124
:103890007CE7EFCF07E225EE44EE69E17CE7E9CF74
:1038A00006E221EE42EE6CE17CE7E3CF07E225EE93
:1038B00046EE6DE17CE7DDCF08E221E045EE6EE10A
:1038C0007CE7D7CF15968C91882319F01092D902F6
:1038D000D3CF81E0D1CF1F93CF93DF9387372CE7EE
:1038E000920751F0C1E088379C47B9F4FB01C581CC
:1038F000CC2329F129D005C0FB01C581CC2391F04F
:1039000020D00E94030823D0D82F1ED0C82F19D052
:103910004D2F6C2F0E943709C0E08C2FDF91CF9183
:103920001F9108950ED00E94110811D0182F0CD0AD
:10393000D82F07D0412F6D2F0E943709EECF04D02A
:10394000F2CF8091380108958091370108958091D8
:1039500036010895A3E0B0E0E0EBFCE10C94FA2915
:10396000AE014F5F5F4FBE016E5F7F4FCE0103968A
:1039700020D18B81833239F48A81893021F481E02E
:103980009981943009F080E081702396E2E00C94F4
:10399000162A882321F044E069E083E230C14FEF2A
:1039A0006FEF8FEFFBCF08950895CF92DF92EF92E4
:1039B000FF926B017C01F8DFC701B6013FD1FF9098
:1039C000EF90DF90CF900895F3D080E0E2DF60E0E9
:1039D00070E0CB01EADF1CD884D881E0DACFE3DFE6
:1039E00024D1E2DFB7DF811101C0EECF0895089541
:1039F0009C01FB018581882349F0A9015757403874
:103A0000510528F4822F6FD880E0089581E0089551
:103A10002FEFFC0120830895FBCF089580E00895E7
:103A2000B0E0A0E0E6E1FDE10C94F429EC01C62E43
:103A3000F5DF811110C0E881E150E331B8F4F0E026
:103A4000E453F54D0C94DD2919828CE08A836C2DAA
:103A5000CE010E94A714CDB7DEB7E8E00C94102A7F
:103A600089818230B9F028F4813061F08FEF88834A
:103A7000EECF833089F08430C9F71A821B821C8212
:103A80001D82E5CFB4D30E94E3296A837B838C83B4
:103A90009D83DDCFCAD0F7CF8A81082F10E07E0149
:103AA00099E0D92ED80E0230110588F6802F0E9499
:103AB0000011F7018383748365830F5F1F4FF3E069
:103AC000EF0EF11CD012EFCFC2CF8981823029F0E6
:103AD000853061F68A818BDFBACF6A817B818C81E8
:103AE0009D810E94E32961DFB2CF4B816A81898188
:103AF0000E9404159827892798279D838C83A7CF38
:103B00002C813D813227232732274B816A8189818D
:103B10000E9406159CCF0E94081599CF6C2DCE01EE
:103B20007BDF95CF0E945215898391CF0E94541557
:103B30009827892798279A83898389CF6B8170E09A
:103B400089819A81AE014C5F5F4F9827892798271A
:103B50000E9457157CCF6B8170E089819A81AE01FC
:103B60004C5F5F4F9827892798270E9464156FCF75
:103B70000E9471156CCF0E940215D6CF6B8170E048
:103B800089819A81AE014C5F5F4F982789279827DA
:103B90000E942E155CCF6B8170E089819A81AE0105
:103BA0004C5F5F4F9827892798270E943B154FCF7E
:103BB0000895EF92FF920F931F93CF93DF937C01B1
:103BC0008B01EA01892B31F085E290E00E944B2ABB
:103BD000F70180830115110531F086E290E00E9423
:103BE0004B2AF8018083209729F087E290E00E9419
:103BF0004B2A8883CDB7DEB7E6E00C94122ACF9328
:103C0000DF93D62FC42F682F85E290E00E94672AA9
:103C10006D2F86E290E00E94672A6C2F87E290E089
:103C20000E94672ADF91CF91089588E290E00E9478
:103C30004B2A682F70E090E080E0089588E290E0E1
:103C40000C94672A9093E0028093DF02089506D2D5
:103C500091E0813009F090E0892F08950E94B4121C
:103C6000811103C08091DA020895E091DF02F091A2
:103C7000E002309739F00190F081E02D309711F09B
:103C80000995089580E00895E091DF02F091E00247
:103C9000309731F00280F381E02D309709F00995DB
:103CA0000895E091DF02F091E002309759F024810D
:103CB0003581232B39F026E0DC012C930480F5813B
:103CC000E02D09950895E091DF02F091E002309730
:103CD00059F026813781232B39F022E0DC012C9327
:103CE0000680F781E02D09950895A3E0B0E0EBE7A9
:103CF000FEE10C94FA292091DD023091DE022817B2
:103D00003907B1F09093DE028093DD02E091DF028B
:103D1000F091E002309761F00084F185E02D30975A
:103D200039F023E029839B838A83CE01019609958C
:103D30002396E2E00C94162AA3E0B0E0E2EAFEE16A
:103D40000C94FA292091DB023091DC022817390704
:103D5000B1F09093DC028093DB02E091DF02F091FE
:103D6000E002309761F00084F185E02D309739F062
:103D700024E029839B838A83CE01019609952396AB
:103D8000E2E00C94162AE091DF02F091E002309715
:103D900031F00284F385E02D309709F009950895FC
:103DA000CF93DF93C0910201D091030122964FDFA0
:103DB000882381F08091EA0287FF0CC0C091000146
:103DC000D091010122969EE180E0915028F4DF918C
:103DD000CF91089596E0F8CF29912223B1F38F5F18
:103DE000F4CFCF93C82F811102C080E023C02FDF12
:103DF000882311F18091EA0287FF1EC0EC2FE6951F
:103E0000E695E695EE3188F78091000190910101E9
:103E1000E80FF92FF11D228130E0C77081E090E0BA
:103E200002C0880F991FCA95E2F72823392381E041
:103E3000232BD9F2CF910895809102019091030133
:103E4000FC013296089621912C1721F0E817F9070A
:103E5000D1F7CBCF81E0EECF9C01FC0132969FEFF2
:103E600080E04191461751F09F3F19F4411101C084
:103E7000982F8F5F8630A9F79F3F09F40895290F87
:103E8000311D97FD3A95F90162830895FC01329640
:103E900008962191261303C0DF0111971C92E817A1
:103EA000F907B9F70895E62FE695E695E695EE3120
:103EB00068F4E80FF92FF11D677021E030E001C0D0
:103EC000220F6A95EAF78281822B82830895E62F7A
:103ED000E695E695E695EE3170F4E80FF92FF11DC1
:103EE000677021E030E001C0220F6A95EAF7209563
:103EF0008281282322830895CF93C82FA8DE6C2FB8
:103F0000882359F08091EA0287FF07C08091000161
:103F100090910101C8DFCF910895809102019091A5
:103F200003019ADFF8CFCF93C82F91DE6C2F88233F
:103F300059F08091EA0287FF07C0809100019091BB
:103F40000101C5DFCF910895809102019091030195
:103F50009DDFF8CF7CDE882379F08091EA0287FF2D
:103F60000BC0E0910001F091010132968EE1DF017A
:103F70001D928A95E9F70895E0910201F0910301FD
:103F8000329686E0F4CFDC01FB0111969C911197EB
:103F90008181981322C012968C911297882319F070
:103FA000928189131AC013968C911397882319F064
:103FB0009381891312C015968C911597882319F057
:103FC000958189130AC014969C91992321F081E070
:103FD0002481291303C080E001C081E0817008952D
:103FE0000895FECF089581110CC081E080933C01BB
:103FF0006091390170913A0180913B0190913C01AF
:10400000F0CF82E0F3CF83E080933C0160913901EF
:1040100070913A0180913B0190913C01E2CFE3CF56
:10402000089581E080933C016091390170913A01DB
:1040300080913B0190913C01D4CFF3CF089591E062
:10404000811101C090E090933B0160913901709122
:104050003A0180913B0190913C01C3CF80913B019B
:10406000089580933A016091390170913A018091ED
:104070003B0190913C01B5CF80913A010895809326
:1040800039016091390170913A0180913B01909121
:104090003C01A7CF80913901089508950895FECF7E
:1040A000089508950895F9CF0895FBDF0E942B121B
:1040B000F9DF80E00E94001121E0672B682B692B5B
:1040C00049F481E00E94001121E0672B682B692BE5
:1040D00009F420E0822F0895CF93DF93EC017BD089
:1040E0008C1B9D0BDF91CF910895CF92DF92EF92C1
:1040F000FF926B017C017BD06C197D098E099F09B1
:10410000FF90EF90DF90CF90089585B7806885BFCE
:1041100085B7806885BF08951F921FB61F9211242E
:104120008F939F93AF93BF938091E102811113C04E
:104130008091020390910303A0910403B0910503C1
:104140004196A11DB11D8093020390930303A09398
:104150000403B0930503BF91AF919F918F911F907E
:104160001FBE1F90189580910A03843031F10E9480
:1041700071041092E10288E190E020E40FB6F89417
:10418000A895809360000FBE2093600083B7817F65
:10419000846083BF83B7816083BF7894889583B739
:1041A0008E7F83BF0FB6F894A895809160008861D8
:1041B00080936000109260000FBE08950E948A07ED
:1041C0000C94750482E084BD93E095BD9AEF97BD91
:1041D00080936E0008952FB7F89480910203909118
:1041E0000303A0910403B09105032FBF08952FB7D7
:1041F000F8946091020370910303809104039091FD
:1042000005032FBF089578941F921FB61F921124A3
:104210008F939F93AF93BF93809102039091030379
:10422000A0910403B09105030196A11DB11D8093D7
:10423000020390930303A0930403B0930503BF917B
:10424000AF919F918F911F901FBE1F90189587E788
:1042500097E7909301088093000888E19AE00FB6F1
:10426000F894A895809360000FBE90936000FFCFF4
:1042700088E19AE00FB6F894A895809360000FBE8D
:1042800090936000FFCF8EE14A9B02C08150E1F71E
:104290004A9BFECF08955A9880E28A95F1F75A9A80
:1042A0000895FC013BE03A95F1F798E020E080E0CA
:1042B00031E040E14A95F1F7880F4A9B02C08160E6
:1042C000232742E04A95F1F7000040E14A95F1F7D3
:1042D000915079F790E19A95F1F799B132E03A95DA
:1042E000F1F7000040E14A95F1F792FB992790F928
:1042F00092272081920F90830895A1E0B0E0E3E837
:10430000F1E20C94F62919828C017C01E60EF11C75
:104310000E151F0541F481E09981911180E02196ED
:10432000E6E00C94122AAFDFCE010196BADFF80165
:1043300081938F01EDCF529A5A9A089552985A9AC2
:10434000EA9AE9E6F0E080818F7C808308956150ED
:10435000770B91E001C0990F6A95EAF720E031E010
:10436000911108C0222391F05A9A80E28A95F1F7C0
:104370005A980895492F482339F05A9A232740E242
:104380004A95F1F79695ECCF5A98F9CF5A98EDCF18
:10439000FF920F931F93CF93DF93EC018C01060FD5
:1043A000111DC017D10729F4CDB7DEB7E5E00C9495
:1043B000132AF99070DF68E08F2DC9DFF2CF1F92CA
:1043C0000F920FB60F9211240F931F932F933F93C9
:1043D0004F935F936F937F938F939F93AF93BF930D
:1043E000EF93FF93CF93DF930F92CDB7DEB7198290
:1043F0004ADFCE01019655DF082F069506950695F2
:10440000282F22952570902F9570290F922F937049
:1044100026952695920F982797708981982B09F0F9
:1044200058C0043008F055C080E18A95F1F75A9AD7
:10443000529A82E08A95F1F700C05A9888E0089F66
:1044400080011124D801AA5EBE4F1696ED91FC9111
:1044500017973097A9F06091CC017091CD01149617
:104460002D913C911597260F371F11968D919C9198
:104470001297680F791F13964C9113978C91099599
:10448000F801EA5EFE4F6381662349F02091CC017A
:104490003091CD0184819581820F931F79DFFBDEFE
:1044A00080E18A95F1F75A9852985A9A80E18A9554
:1044B000F1F7F801EA5EFE4F6081662349F0209132
:1044C000CC013091CD0181819281820F931F15DF44
:1044D000DADE0F90DF91CF91FF91EF91BF91AF9115
:1044E0009F918F917F916F915F914F913F912F910C
:1044F0001F910F910F900FBE0F901F9018950F9363
:104500001F93CF93DF93EC0104970CF049C0F8940C
:10451000529A5A9885E08A95F1F700009C2F96955B
:1045200095708C2F8570980F892F8370969596952E
:1045300023E0CC0FDD1F2A95E1F7980F8E01092BA0
:10454000AADE00C068E0802F02DF80E18A95F1F7E3
:1045500052985A9A4A9B1DC087E090E04A991BC026
:10456000FE01EA5EFE4F63816623F1F02091CC01EB
:104570003091CD0184819581820F931FBEDE811120
:1045800013C0529A5A9A7894DF91CF911F910F914C
:10459000089500C0DFCF019729F4529A5A9A78946F
:1045A00080E0F2CF00C0DACF6EDE80E28A95F1F7CC
:1045B0005A98529A80E18A95F1F7CA5EDE4F688177
:1045C000662349F02091CC013091CD0189819A81F7
:1045D000820F931FDDDE5FDE789481E0D5CF9B01F3
:1045E000BA0190910A039430E1F48F708093E9004E
:1045F0009FEF8091E800915085FD06C085ED8A957A
:10460000F1F700009111F5CF8091E80085FF09C016
:1046100050E040E0C901F6D18091E8008E778093A8
:10462000E8000895603229F440E250E0BC0182E0E5
:10463000D6CF089543E050E0BC0184E0D0CF46E0FF
:1046400050E0BC0184E0CBCF40E250E0BC0184E00C
:10465000C6CFCF93DF93EC0101DD48E050E0BE010F
:1046600081E0BDDF88E0FE01A2EEB2E001900D9294
:104670008A95E1F7DF91CF910895A0E2B0E0E2E4FE
:10468000F3E2B8C680910A038430F9F483E08093A2
:10469000E9008091E80082FF18C08091E80090E076
:1046A00085FF08C050E040E060E270E0CE01019676
:1046B000F6D191E08091E8008B778093E800992310
:1046C00021F060E2CE010196ABD9A096E2E0AEC641
:1046D00080910903811107C070D3C7D38091E20094
:1046E00084608093E200089510920903089599DC94
:1046F00081E0A5CC6091060381E0611101C080E0FA
:1047000082CC90910A0381E0943009F080E06091BE
:10471000060385CC42E061EC81E0CBD242E261EC61
:1047200084E0C7D242E261EC82E0C3D242E260ECB4
:1047300083E0BFD290910A0381E0943009F080E0D9
:104740006091060350CC80910C03833009F460C063
:1047500030F48130D1F1823009F496C008958A3066
:1047600009F485C08B3009F46DC0893009F04FC061
:1047700080910B03813209F04AC080910F03909120
:104780001003009719F0029709F041C08091E800EA
:10479000877F8093E8008091E80082FF34C0909189
:1047A000F3008091F200029731F48091F1008130A2
:1047B00011F0863019F48091F10053DC8091E8000B
:1047C0008B778093E800A9D222C080910B03813AB5
:1047D000F1F48091E800877F8093E80080910F03D7
:1047E00090911003892B59F468E082EE92E070E01A
:1047F000A3D18091E8008B778093E800089560E072
:1048000090E080E0F4CF80910A038111C4CF089535
:1048100080910B03813AD9F780910F039091100397
:10482000892BA9F78091E800877F8093E800809129
:10483000E80080FFFCCF12DC8093F1008091E8005B
:104840008E77BFCF80910B03813209F780910F03E0
:1048500090911003892BD9F68091E800877F80938F
:10486000E8005BD280910D03EADB0C948A0780910B
:104870000B03813261F68091E800877F8093E80026
:104880004CD280910E03FBCB80910B03813A09F04F
:10489000BECF8091E800877F8093E8008091E80098
:1048A00080FFFCCFF7DBC8CF84B7877F84BF0FB60C
:1048B000F894A895809160008861809360001092C0
:1048C00060000FBE80E890E00FB6F894809361001E
:1048D000909361000FBEB1CB70D2C7D2E2EEF0E090
:1048E00080818460808378942AC58DE391E0AAC991
:1048F00080910A03853029F480910A03853011F0F4
:104900005DCC089530DCD1DB8823B1F380910803BE
:10491000882391F361D00E948A07EECF08959A010F
:10492000409111035091120300C0492F5527433085
:10493000510521F168F44130510509F443C042307A
:10494000510509F444C090E080E050E040E026C00A
:104950004132510551F142325105A9F763307105D9
:1049600090F7FB01EE0FFF1FEF52FE4F4081518188
:1049700062537E4FFB01808190E010C09927813007
:10498000910581F0009729F00297E9F6ECE8F4E050
:1049900002C0E2ECF4E0849190E0AF01F9015183B0
:1049A00040830895E2EAF4E0F6CF6330710558F6EB
:1049B000660F771FFB01E952FE4F4081518189E06C
:1049C00090E0ECCF82E190E041E255E0E7CF8BE56B
:1049D00090E046EC54E0E2CF80E189BD82E189BD00
:1049E00009B400FEFDCF8091D8008F7D8093D80060
:1049F0008091E00082608093E0008091E00081FD82
:104A0000FCCF0895AF92BF92CF92DF92FF920F93A7
:104A10001F93CF93DF936C01EB018A019DD1F82E98
:104A2000811123C00115110539F0F80180819181B0
:104A3000C81BD90BC80ED91EB12CA12C2097A9F0E8
:104A40008091E80085FD21C08091E8008E778093F9
:104A5000E80001151105A1F0F80180819181A80EEF
:104A6000B91EB182A08285E0F82E8F2DDF91CF9103
:104A70001F910F91FF90DF90CF90BF90AF9008955E
:104A80006BD18823D9F2F82EF0CFF60181916F0116
:104A90008093F1002197FFEFAF1ABF0ACFCFAF92FB
:104AA000BF92CF92DF92FF920F931F93CF93DF932A
:104AB0006C01EB018A0150D1F82E811123C0011540
:104AC000110539F0F80180819181C81BD90BC80EFE
:104AD000D91EB12CA12C2097A9F08091E80085FD6A
:104AE00021C08091E8008B778093E80001151105C3
:104AF000A1F0F80180819181A80EB91EB182A08237
:104B000085E0F82E8F2DDF91CF911F910F91FF90AF
:104B1000DF90CF90BF90AF9008951ED18823D9F237
:104B2000F82EF0CF8091F100F60181936F0121976B
:104B3000FFEFAF1ABF0ACFCFFC0180911103909114
:104B4000120386179707A0F06115710529F490915B
:104B5000E8009E779093E80090E06115710551F4AC
:104B6000911108C08091E80082FF34C080E0089570
:104B7000BC01F2CF80910A038823C1F18530C1F1D5
:104B80008091E80083FD30C08091E80082FDEACF8B
:104B90008091E80080FFE1CF8091F3002091F20046
:104BA000382F6115710519F02830310558F091E062
:104BB0002830310509F090E02091E8002E7720930D
:104BC000E800CBCF81918093F100615071092F5F94
:104BD0003F4FE7CF80910A03882341F0853041F0B1
:104BE0008091E80083FFBECF81E0089582E00895C0
:104BF00083E00895FC0180911103909112038617C0
:104C00009707A0F06115710529F48091E8008E776F
:104C10008093E80090E06115710551F4911108C08E
:104C20008091E80082FF35C080E00895BC01F2CF9A
:104C300080910A038823C9F18530C9F18091E80089
:104C400083FD31C08091E80082FDEACF8091E800C9
:104C500080FFE1CF8091F3002091F200382F6115A1
:104C6000710519F02830310558F091E028303105F0
:104C700009F090E08091E8008E778093E800CBCF38
:104C800084918093F1003196615071092F5F3F4FFD
:104C9000E6CF80910A03882341F0853041F080916E
:104CA000E80083FFBDCF81E0089582E0089583E0AE
:104CB0000895982F973028F08F708093E90081E055
:104CC00008959093E900242F762F50E0981731F043
:104CD0007091EC002091ED005091F00021FD02C098
:104CE0009F5FE8CF3091EB003E7F3093EB00309137
:104CF000ED003D7F3093ED003091EB00316030935B
:104D0000EB007093EC002093ED005093F0002091A5
:104D1000EE0027FDE5CF80E0089580910B0387FF2B
:104D200013C08091E80082FF06C08091E8008B7775
:104D30008093E80004C080910A038111F2CF0895A6
:104D400080910A038823D9F38091E80080FFF8CF8F
:104D50008091E8008E77ECCF2091E4003091E5005F
:104D600095E6A9012091EC00822F817020FF06C0FA
:104D70008091E80080FF06C080E008952091E8005F
:104D800022FD1AC080910A03882389F0853089F0BA
:104D90008091EB0085FD0FC02091E4003091E5008B
:104DA00042175307F9F29150E1F684E0089582E04A
:104DB000089583E0089581E0089567D06ED0E0EE15
:104DC000F0E0808181608083E8EDF0E080818F7782
:104DD000808319BCA7EDB0E08C918E7F8C9380818D
:104DE0008F7E80831092090308950F931F93CF93B2
:104DF000DF934BD052D0C8EDD0E088818F77888385
:104E000088818068888388818F7D888319BC10920F
:104E10000A0310920603109208031092070300EE93
:104E200010E0F80180818B7F808388818160888396
:104E300042E060E080E03DDFE1EEF0E080818E7FE7
:104E40008083E2EEF0E080818160808380818860F1
:104E50008083F80180818E7F808388818061888350
:104E6000DF91CF911F910F910895E8EDF0E08081DF
:104E70008F7E8083E7EDF0E080818160808384E035
:104E800082BF81E080930903B0CFE8EDF0E080813C
:104E90008E7F80831092E20008951092DA001092C3
:104EA000E10008951F920F920FB60F9211242F93D5
:104EB0003F934F935F936F937F938F939F93AF93A2
:104EC000BF93EF93FF938091E10082FF0AC080912E
:104ED000E20082FF06C08091E1008B7F8093E100B9
:104EE0002DD28091DA0080FF18C08091D80080FF19
:104EF00014C08091DA008E7F8093DA008091D9000F
:104F000080FF91C080E189BD82E189BD09B400FEC6
:104F1000FDCF81E080930A03DBDB8091E10080FF1D
:104F200018C08091E20080FF14C08091E2008E7F63
:104F30008093E2008091E20080618093E2008091A2
:104F4000D80080628093D80019BC85E080930A0362
:104F5000D1DB8091E10084FF2AC08091E20084FFD0
:104F600026C080E189BD82E189BD89B5982F917005
:104F700080FFFBCF8091D8008F7D8093D8008091F7
:104F8000E1008F7E8093E1008091E2008F7E80932C
:104F9000E2008091E20081608093E200809106034C
:104FA000882309F445C084E080930A03AADB80913A
:104FB000E10083FF27C08091E20083FF23C080913E
:104FC000E100877F8093E10082E080930A031092E2
:104FD00006038091E1008E7F8093E1008091E200E2
:104FE0008E7F8093E2008091E20080618093E200F6
:104FF00042E060E080E05DDE8091F00088608093B8
:10500000F00075DBFF91EF91BF91AF919F918F9170
:105010007F916F915F914F913F912F910F900FBEB4
:105020000F901F90189519BC10920A035DDB75CF85
:105030008091E30087FD93E090930A03B7CF1F921E
:105040000F920FB60F9211242F933F934F935F93BC
:105050006F937F938F939F93AF93BF93CF93DF9380
:10506000EF93FF93D091E900DF708091EC00C82F9F
:10507000C17080FDC0E81092E9008091F000877F48
:105080008093F00078941ED01092E9008091F00097
:1050900088608093F000CD2BCF70C093E900FF9122
:1050A000EF91DF91CF91BF91AF919F918F917F91C0
:1050B0006F915F914F913F912F910F900FBE0F9085
:1050C0001F901895AAE2B0E0E7E6F8E292C18BE003
:1050D00093E02091F100FC012193CF01F3E08331B3
:1050E0009F07B9F730DB8091E80083FF16C18091FC
:1050F0000B0390910C039A3008F00FC1E92FF0E0F8
:10510000E152F54D5AC1803899F0823809F005C155
:1051100080910F038F70873008F0FFC08093E90003
:105120008091EB0085FB882780F91092E90006C08A
:105130008091070390910803911182609091E8009B
:10514000977F9093E8008093F1001092F100809196
:10515000E8008E77DFC0882309F4CDC0823009F0E3
:10516000DCC080910D038111D0C080910F038F703E
:105170002FEF280F263008F0D0C08093E90020914F
:10518000EB0020FFC2C0933031F48091EB008062CD
:105190008093EB00BAC09091EB0090619093EB008C
:1051A00021E030E001C0220F8A95EAF72093EA005F
:1051B0001092EA008091EB008860EACF8111ADC0C7
:1051C00010910D031F778091E3008078812B8093ED
:1051D000E3008091E800877F8093E8009EDD809166
:1051E000E80080FFFCCF8091E30080688093E300BB
:1051F00082E0111183E080930A038FC080588230CF
:1052000008F08BC080910D0390910E038C3D23E03C
:10521000920799F583E08A838AE289834FB7F894ED
:10522000DE01139620E03EE051E2E32FF0E05093E0
:105230005700E49120FF03C0E295EF703F5FEF70ED
:105240008E2F90E0EA30B8F0C7968D939D932F5F34
:10525000243159F74FBF8091E800877F8093E800A1
:105260006AE270E0CE01019667DC8091E8008B77FE
:105270008093E80052C0C096E8CF60910F03709110
:105280001003AE014F5F5F4F4ADBBC01892B09F46D
:1052900044C09091E800977F9093E80089819A81BB
:1052A000A9DCE3CF8038C9F58091E800877F80933F
:1052B000E800809106038093F10049CF81112DC051
:1052C00090910D03923048F58091E800877F80939C
:1052D000E8009093060321DD80910603882311F0F6
:1052E00084E005C08091E30087FDFACF81E08093E0
:1052F0000A0310DA12C080910D03813071F481E04D
:10530000933009F080E0809308031092E9008091C7
:10531000E800877F8093E80000DD8091E80083FF4C
:105320000AC08091E800877F8093E8008091EB00BD
:1053300080628093EB00AA96E3E077C00895CF9354
:1053400080910A03882399F0C091E900CF70909171
:10535000EC00892F817090FD80E8C82B1092E90045
:105360008091E80083FDAEDECF70C093E900CF915D
:10537000089523DD10920A030895E8EDF0E080819E
:10538000806180838AE18A95F1F700C08091D9001D
:105390008170089597FB072E16F4009406D077FDD0
:1053A00008D04FD007FC05D03EF4909581959F4FD3
:1053B0000895709561957F4F0895EE0FFF1F05903A
:1053C000F491E02D09946927962769277827872784
:1053D000782708952F923F924F925F926F927F921B
:1053E0008F929F92AF92BF92CF92DF92EF92FF92F5
:1053F0000F931F93CF93DF93CDB7DEB7CA1BDB0BA1
:105400000FB6F894DEBF0FBECDBF09942A88398845
:1054100048885F846E847D848C849B84AA84B9844C
:10542000C884DF80EE80FD800C811B81AA81B98158
:10543000CE0FD11D0FB6F894DEBF0FBECDBFED016C
:105440000895AA1BBB1B51E107C0AA1FBB1FA617CB
:10545000B70710F0A61BB70B881F991F5A95A9F71D
:1054600080959095BC01CD010895FB01DC0104C03D
:105470008D910190801921F441505040C8F7881B4C
:10548000990B0895FB01DC0102C001900D9241507F
:105490005040D8F70895F999FECF92BD81BDF89A92
:1054A000992780B50895A8E1B0E042E050E02FC010
:1054B000DC01A40FB51F4150504040F0CB01840FD8
:1054C000951F2E9105D041505040D8F70895262FB2
:1054D000F999FECF92BD81BDF89A019700B40216EA
:1054E00039F01FBA20BD0FB6F894FA9AF99A0FBE98
:1054F00008950396272FECDFEADF252FE9DF242F1D
:10550000E7CF0196272FE4DFE2CFDC01CB01FC01DE
:10551000F999FECF06C0F2BDE1BDF89A319600B40C
:105520000D9241505040B8F70895F894FFCFBE0552
:10553000BE05F405F4054D066906E605E6056D06AB
:10554000D606E206E206C6173818CE1798179C173B
:10555000D217A017D617E217AC173118B017E617F5
:10556000B417EA171218B817EE171918BE17F41760
:10557000FC17A417DA17A817DE17C217F8170818B0
:1055800022182F189217CA173F18441C4A1C341CA3
:105590003E1C501C561C5C1C241D301D651D751DB9
:1055A000801D8B1D8E1D8E1D8E1D361D361D921D60
:1055B000961D9E1DAB1DB81DBB1DBE1DCB1D83289A
:1055C000AB288D29AB288D29DE28FE288D2952296C
:0255D0005E2952
:1055D2006A028A02F591F6C6F7F490663431939422
:1055E2009735333236010000000100000000000050
:1055F200000401000000040500000000000028086B
:1056020050011E0A1401030201000001003C20297E
:105612002324231F231A231223F7C6F691F53134CC
:105622006690F433359794933632E200E900EA004B
:10563200B500B600B700CD008301CC008A0192010B
:1056420094012102230224022502260227022A02B1
:10565200B300B4006F0070009F01CB019F02A00253
:10566200818283E200E900EA00B500B600B700CD0E
:10567200008301CC008A01920194012102230224B9
:10568200022502260227022A02B300B4006F00702C
:10569200009F01CB019F02A002818283B0024422BB
:0E56A200B60B0633055505D804F104110500BA
:00000001FF
